:020000040000FA
:1000000070020020F1020000F9020000FB02000073
:10001000FD020000FF0200000103000000000000DC
:1000200000000000000000000000000003030000CA
:1000300005030000000000000703000009030000A2
:100040000B0300000D0300000F030000110300006C
:10005000130300001503000017030000190300003C
:100060001B0300001D0300001F030000210300000C
:1000700023030000250300002703000029030000DC
:100080002B0300002D0300002F0300005906000081
:10009000330300003503000037030000390300007C
:1000A0003B0300003D0300003F030000410300004C
:1000B000430300004503000047030000490300001C
:1000C0004B0300004D0300004F03000051030000EC
:1000D00053030000550300005703000059030000BC
:1000E0005B0300005D030000000000005F030000F0
:1000F0006103000063030000650300006703000064
:10010000690300006B0300006D0300006F03000033
:1001100000000000000000007103000073030000F5
:100120007503000077030000790300007B030000E3
:100130007D0300007F0300008103000083030000B3
:1001400000000000000000000000000000000000AF
:100150008503000087030000890300008B03000073
:10016000000000000000000000000000000000008F
:10017000000000000000000000000000000000007F
:10018000000000000000000000000000000000006F
:10019000000000000000000000000000000000005F
:1001A000000000000000000000000000000000004F
:1001B0008D0300008F0300009103000093030000F3
:1001C0009503000097030000990300009B030000C3
:1001D0009D0300009F030000A1030000A303000093
:1001E000A5030000A7030000A90300000000000011
:1001F00000000000AB030000AD030000AF030000EF
:10020000B1030000B3030000000000000000000084
:10021000B5030000B7030000B9030000BB030000F2
:10022000BD030000BF030000C1030000C3030000C2
:10023000C5030000C7030000C9030000CB03000092
:10024000CD030000CF030000D1030000D303000062
:10025000D5030000D7030000D9030000DB03000032
:10026000DD030000DF030000E103000000F002F8FE
:1002700000F02EF80AA090E8000C82448344AAF112
:100280000107DA4501D100F023F8AFF2090EBAE810
:100290000F0013F0010F18BFFB1A43F001031847BA
:1002A000080700001807000000230024002500268E
:1002B000103A28BF78C1FBD8520728BF30C148BFC9
:1002C0000B6070471FB500F061FB1FBD10B510BD7E
:1002D00000F09BF81146FFF7F5FF00F0F9FA00F087
:1002E000B9F803B4FFF7F2FF03BC00F0C1F8000057
:1002F0003F4880473F480047FEE7FEE7FEE7FEE74E
:10030000FEE7FEE7FEE7FEE7FEE7FEE7FEE7FEE7C5
:10031000FEE7FEE7FEE7FEE7FEE7FEE7FEE7FEE7B5
:10032000FEE7FEE7FEE7FEE7FEE7FEE7FEE7FEE7A5
:10033000FEE7FEE7FEE7FEE7FEE7FEE7FEE7FEE795
:10034000FEE7FEE7FEE7FEE7FEE7FEE7FEE7FEE785
:10035000FEE7FEE7FEE7FEE7FEE7FEE7FEE7FEE775
:10036000FEE7FEE7FEE7FEE7FEE7FEE7FEE7FEE765
:10037000FEE7FEE7FEE7FEE7FEE7FEE7FEE7FEE755
:10038000FEE7FEE7FEE7FEE7FEE7FEE7FEE7FEE745
:10039000FEE7FEE7FEE7FEE7FEE7FEE7FEE7FEE735
:1003A000FEE7FEE7FEE7FEE7FEE7FEE7FEE7FEE725
:1003B000FEE7FEE7FEE7FEE7FEE7FEE7FEE7FEE715
:1003C000FEE7FEE7FEE7FEE7FEE7FEE7FEE7FEE705
:1003D000FEE7FEE7FEE7FEE7FEE7FEE7FEE7FEE7F5
:1003E000FEE7000004480549034A054B704700003A
:1003F000450600006D020000700000207002002021
:1004000070000020704770477047754600F02CF868
:10041000AE4605006946534620F00700854618B0F1
:1004200020B5FFF7DFFFBDE820404FF000064FF09A
:1004300000074FF000084FF0000BAC46ACE8C009D5
:10044000ACE8C009ACE8C009ACE8C00921F007017C
:100450008D46704710B50446AFF300802046BDE8D6
:100460001040FFF73EBF000000487047000000202A
:1004700001491820ABBEFEE72600020070470000CD
:1004800080B582B08DF807008DF806108DF8052034
:100490009DF8070000F0B2F90090009944F24B304B
:1004A000C4F64F40C1F820059DF80610012000FA5F
:1004B00001F20099D1F824051043C1F824059DF8F4
:1004C000050060B1FFE79DF80610012000FA01F277
:1004D0000099D1F81C051043C1F81C050BE09DF8EC
:1004E0000610012000FA01F20099D1F81C05904392
:1004F000C1F81C05FFE79DF80610012000FA01F283
:100500000099D1F824059043C1F8240500990020F2
:10051000C1F8200502B080BD80B584B08DF80F0011
:100520008DF80E108DF80D209DF80F0000F066F983
:1005300002909DF80D000146019140B1FFE701983E
:10054000012810D0FFE70198022818D018E09DF884
:100550000E10012000FA01F20299D1F80004904334
:10056000C1F800040CE09DF80E10012000FA01F221
:100570000299D1F800041043C1F8000400E0FFE73D
:1005800004B080BD80B584B08DF80F008DF80E10DA
:100590008DF80D209DF80F0000F030F902900298C0
:1005A000D0F800049DF80E10C840C007F8B1FFE76E
:1005B0009DF80D0068B9FFE7029801909DF80E10B4
:1005C000022000F0B3F901990246002041F8220010
:1005D0000CE0029800909DF80E10022000F0A6F9A1
:1005E00000990246FF2041F82200FFE7FFE704B030
:1005F00080BD000081B08DF803009DF8031001203C
:1006000000FA01F24EF20861C4F20F0108681043CB
:10061000086001B07047000081B08DF803009DF8BC
:10062000031001F01F02012000FA02F31C2000EA6F
:10063000D1014EF20012CEF20002885818438850C1
:1006400001B070474EF68851CEF20001086840F4C0
:10065000700008607047000080B582B040F2600111
:10066000C2F2000108680130086040F26400C2F282
:1006700000000078F0B1FFE740F26000C2F2000035
:10068000006840F26C01C2F200010968884211D38F
:10069000FFE7052001221146FFF774FF40F26401D5
:1006A000C2F200010020087040F26001C2F20001B5
:1006B000086028E040F26400C2F20000007808BB45
:1006C000FFE740F26000C2F20000006840F26801FB
:1006D000C2F200010968884214D3FFE70520012116
:1006E000009100220192FFF74DFF0099019840F21E
:1006F0006402C2F20002117040F26001C2F2000115
:100700000860FFE7FFE702B080BD000080B584B05D
:10071000844606988DF80FC08DF80E108DF80D20C8
:100720000293ADF806009DF80E0020B1FFE7082007
:100730008DF80E00FFE79DF80D00012804D0FFE7BB
:1007400002208DF80D00FFE79DF80F0000F08AF8F9
:1007500000909DF80F10012000FA01F34EF20462A0
:10076000C4F20F021168194311609DF80E1000FACF
:1007700001F20099C8689043C860009900200860A1
:100780009DF80E0060B9FFE79DF80D0000994860E4
:10079000029800998862BDF80600009988630BE012
:1007A0009DF80D000099886002980099C862BDF814
:1007B00006000099C863FFE79DF80E10012000FABB
:1007C00001F20099C8681043C86004B080BD000001
:1007D00080B582B08DF807008DF806109DF80610E0
:1007E0000120884000909DF8070000F03BF8009A37
:1007F000014688691043886102B080BD83B08DF8DE
:1008000007009DF8070001460091042821D80099AF
:10081000DFE801F003070D1319004FF040200290AC
:100820001DE045F20000C4F20000029017E046F21D
:100830000000C4F20000029011E047F20000C4F290
:10084000000002900BE044F20000C4F202000290AB
:1008500005E045F20000C4F202000290FFE70298B2
:1008600003B0704783B08DF807009DF8070001467C
:100870000091042822D80099DFE801F003080E1443
:100880001A000020C4F2030002901DE041F20000B3
:10089000C4F20300029017E042F20000C4F2030029
:1008A000029011E043F20000C4F2030002900BE05A
:1008B00044F20000C4F20300029005E045F200009B
:1008C000C4F203000290FFE7029803B070470000F3
:1008D00080B586B00020049005904FF47A7000F047
:1008E0004BF84FF4FA7000F03DF805200290FFF746
:1008F00081FE0298012203921146FFF7C1FD029882
:10090000039A1146FFF708FE04996A46FD2010601D
:1009100002223F230846FFF7F9FE1320FFF77CFE73
:1009200004990846FFF754FFFFE7FEE783B0029003
:100930008DF8071000200090FFE79DF80700411E8A
:100940008DF8071028B1FFE702990098084400903D
:10095000F3E7009818B9FFE701200090FFE700983F
:1009600003B0704781B00090009840F26801C2F275
:100970000001086001B0704781B00090009840F21B
:100980006C01C2F20001086001B07047F1EE100A7C
:100990004FF6FF71C0F2C03120EA010040F0407014
:1009A000E1EE100A70470000B809000000000020C6
:0809B00070020000A802000023
:04000005000002F104
:00000001FF
